{
    "contractName": "PredictionMarket",
    "abi": [
        {
            "inputs": [
                {
                    "internalType": "address",
                    "name": "_collateralToken",
                    "type": "address"
                }
            ],
            "stateMutability": "nonpayable",
            "type": "constructor"
        },
        {
            "anonymous": false,
            "inputs": [
                {
                    "indexed": false,
                    "internalType": "uint128",
                    "name": "marketId",
                    "type": "uint128"
                },
                {
                    "indexed": false,
                    "internalType": "bool",
                    "name": "outcome",
                    "type": "bool"
                }
            ],
            "name": "MarketResolved",
            "type": "event"
        },
        {
            "anonymous": false,
            "inputs": [
                {
                    "indexed": false,
                    "internalType": "uint128",
                    "name": "marketId",
                    "type": "uint128"
                },
                {
                    "indexed": true,
                    "internalType": "address",
                    "name": "buyer",
                    "type": "address"
                },
                {
                    "indexed": false,
                    "internalType": "uint256",
                    "name": "collateralUsd",
                    "type": "uint256"
                },
                {
                    "indexed": false,
                    "internalType": "bool",
                    "name": "isSell",
                    "type": "bool"
                }
            ],
            "name": "PositionTokensPurchased",
            "type": "event"
        },
        {
            "anonymous": false,
            "inputs": [
                {
                    "indexed": true,
                    "internalType": "address",
                    "name": "token",
                    "type": "address"
                }
            ],
            "name": "TokenAssociated",
            "type": "event"
        },
        {
            "anonymous": false,
            "inputs": [
                {
                    "indexed": false,
                    "internalType": "uint128",
                    "name": "marketId",
                    "type": "uint128"
                },
                {
                    "indexed": true,
                    "internalType": "address",
                    "name": "user",
                    "type": "address"
                },
                {
                    "indexed": false,
                    "internalType": "uint256",
                    "name": "amount",
                    "type": "uint256"
                }
            ],
            "name": "WinningsRedeemed",
            "type": "event"
        },
        {
            "inputs": [
                {
                    "internalType": "address",
                    "name": "tokenAddress",
                    "type": "address"
                }
            ],
            "name": "associateToken",
            "outputs": [],
            "stateMutability": "nonpayable",
            "type": "function"
        },
        {
            "inputs": [
                {
                    "internalType": "address",
                    "name": "",
                    "type": "address"
                }
            ],
            "name": "associatedTokens",
            "outputs": [
                {
                    "internalType": "bool",
                    "name": "",
                    "type": "bool"
                }
            ],
            "stateMutability": "view",
            "type": "function"
        },
        {
            "inputs": [
                {
                    "internalType": "uint128",
                    "name": "marketId",
                    "type": "uint128"
                },
                {
                    "internalType": "address",
                    "name": "signerYes",
                    "type": "address"
                },
                {
                    "internalType": "address",
                    "name": "signerNo",
                    "type": "address"
                },
                {
                    "internalType": "uint256",
                    "name": "collateralUSDC",
                    "type": "uint256"
                },
                {
                    "internalType": "uint128",
                    "name": "txIdYes",
                    "type": "uint128"
                },
                {
                    "internalType": "uint128",
                    "name": "txIdNo",
                    "type": "uint128"
                },
                {
                    "internalType": "bytes",
                    "name": "sigYes",
                    "type": "bytes"
                },
                {
                    "internalType": "bytes",
                    "name": "sigNo",
                    "type": "bytes"
                }
            ],
            "name": "buyPositionTokensOnBehalfAtomic",
            "outputs": [],
            "stateMutability": "nonpayable",
            "type": "function"
        },
        {
            "inputs": [],
            "name": "collateralToken",
            "outputs": [
                {
                    "internalType": "contract IERC20",
                    "name": "",
                    "type": "address"
                }
            ],
            "stateMutability": "view",
            "type": "function"
        },
        {
            "inputs": [
                {
                    "internalType": "uint128",
                    "name": "marketId",
                    "type": "uint128"
                },
                {
                    "internalType": "string",
                    "name": "_statement",
                    "type": "string"
                }
            ],
            "name": "createNewMarket",
            "outputs": [],
            "stateMutability": "nonpayable",
            "type": "function"
        },
        {
            "inputs": [
                {
                    "internalType": "uint128",
                    "name": "marketId",
                    "type": "uint128"
                }
            ],
            "name": "getTotalCollateral",
            "outputs": [
                {
                    "internalType": "uint256",
                    "name": "amountUSDC",
                    "type": "uint256"
                }
            ],
            "stateMutability": "view",
            "type": "function"
        },
        {
            "inputs": [
                {
                    "internalType": "uint128",
                    "name": "marketId",
                    "type": "uint128"
                },
                {
                    "internalType": "address",
                    "name": "user",
                    "type": "address"
                }
            ],
            "name": "getUserTokens",
            "outputs": [
                {
                    "internalType": "uint256",
                    "name": "yes",
                    "type": "uint256"
                },
                {
                    "internalType": "uint256",
                    "name": "no",
                    "type": "uint256"
                }
            ],
            "stateMutability": "view",
            "type": "function"
        },
        {
            "inputs": [
                {
                    "internalType": "uint128",
                    "name": "",
                    "type": "uint128"
                },
                {
                    "internalType": "address",
                    "name": "",
                    "type": "address"
                }
            ],
            "name": "noTokens",
            "outputs": [
                {
                    "internalType": "uint256",
                    "name": "",
                    "type": "uint256"
                }
            ],
            "stateMutability": "view",
            "type": "function"
        },
        {
            "inputs": [
                {
                    "internalType": "uint128",
                    "name": "",
                    "type": "uint128"
                }
            ],
            "name": "outcomes",
            "outputs": [
                {
                    "internalType": "bool",
                    "name": "",
                    "type": "bool"
                }
            ],
            "stateMutability": "view",
            "type": "function"
        },
        {
            "inputs": [
                {
                    "internalType": "uint128",
                    "name": "marketId",
                    "type": "uint128"
                }
            ],
            "name": "redeem",
            "outputs": [
                {
                    "internalType": "uint256",
                    "name": "amountUSDC",
                    "type": "uint256"
                }
            ],
            "stateMutability": "nonpayable",
            "type": "function"
        },
        {
            "inputs": [
                {
                    "internalType": "uint128",
                    "name": "",
                    "type": "uint128"
                }
            ],
            "name": "resolutionTimes",
            "outputs": [
                {
                    "internalType": "uint256",
                    "name": "",
                    "type": "uint256"
                }
            ],
            "stateMutability": "view",
            "type": "function"
        },
        {
            "inputs": [
                {
                    "internalType": "uint128",
                    "name": "marketId",
                    "type": "uint128"
                },
                {
                    "internalType": "bool",
                    "name": "noYes",
                    "type": "bool"
                }
            ],
            "name": "resolveMarket",
            "outputs": [],
            "stateMutability": "nonpayable",
            "type": "function"
        },
        {
            "inputs": [
                {
                    "internalType": "uint128",
                    "name": "",
                    "type": "uint128"
                }
            ],
            "name": "statements",
            "outputs": [
                {
                    "internalType": "string",
                    "name": "",
                    "type": "string"
                }
            ],
            "stateMutability": "view",
            "type": "function"
        },
        {
            "inputs": [
                {
                    "internalType": "uint128",
                    "name": "",
                    "type": "uint128"
                }
            ],
            "name": "totalCollaterals",
            "outputs": [
                {
                    "internalType": "uint256",
                    "name": "",
                    "type": "uint256"
                }
            ],
            "stateMutability": "view",
            "type": "function"
        },
        {
            "inputs": [
                {
                    "internalType": "uint128",
                    "name": "",
                    "type": "uint128"
                },
                {
                    "internalType": "address",
                    "name": "",
                    "type": "address"
                }
            ],
            "name": "yesTokens",
            "outputs": [
                {
                    "internalType": "uint256",
                    "name": "",
                    "type": "uint256"
                }
            ],
            "stateMutability": "view",
            "type": "function"
        }
    ],
    "bytecode": "60a03461008b57601f61145138819003918201601f19168301916001600160401b0383118484101761008f5780849260209460405283398101031261008b57516001600160a01b0381169081900361008b576080525f80546001600160a01b031916331790556040516113ad90816100a48239608051818181610232015281816109b80152610d090152f35b5f80fd5b634e487b7160e01b5f52604160045260245ffdfe60806040526004361015610011575f80fd5b5f3560e01c806330ec270714610ba1578063354df84f1461092b578063406c45e4146108d8578063489f41e8146107a65780634e91e42f14610769578063500b3e92146106f757806370d34396146106a45780637689dd441461066c578063986c16ab146103be578063a7efe34814610261578063b2016bd41461021d578063b27b7f6d14610137578063bcffca1d146100fa578063c7fe950b146100be5763e903ab32146100be575f80fd5b346100f65760203660031901126100f6576001600160801b036100df610f96565b165f526005602052602060405f2054604051908152f35b5f80fd5b346100f65760203660031901126100f6576001600160801b0361011b610f96565b165f526003602052602060ff60405f2054166040519015158152f35b346100f65760203660031901126100f6576001600160801b03610158610f96565b165f52600260205260405f20604051905f908054906101768261107a565b80855291600181169081156101f657506001146101b6575b6101b28461019e81860382611006565b6040519182916020835260208301906110b2565b0390f35b5f90815260208120939250905b8082106101dc5750909150810160200161019e8261018e565b9192600181602092548385880101520191019092916101c3565b60ff191660208087019190915292151560051b8501909201925061019e915083905061018e565b346100f6575f3660031901126100f6576040517f00000000000000000000000000000000000000000000000000000000000000006001600160a01b03168152602090f35b346100f65760203660031901126100f65761027a610fc2565b61028e60018060a01b035f541633146110d6565b60405163248a35ef60e11b602082019081523060248301526001600160a01b0390921660448083018290528252915f918291906102cc606482611006565b5190826101675af16102dc6111a2565b9015610387576020818051810103126100f657602001518060070b8091036100f65760160361034257805f52600160205260405f20600160ff198254161790557fbbbf805ef99ca7d0b7d2cc769719f2a281c9b3331a3642efa75a712e3094a1665f80a2005b60405162461bcd60e51b815260206004820152601a60248201527f4173736f63696174696f6e206e6f74207375636365737366756c0000000000006044820152606490fd5b60405162461bcd60e51b815260206004820152600f60248201526e121514c818d85b1b0819985a5b1959608a1b6044820152606490fd5b346100f65760403660031901126100f6576103d7610f96565b60243567ffffffffffffffff81116100f657366023820112156100f6576104106001600160801b03913690602481600401359101611044565b9161042560018060a01b035f541633146110d6565b16805f52600260205260405f206040516020810191815f8254926104488461107a565b936001811690811561064e575060011461060f575b50610471925003601f198101835282611006565b5190206040515f8152610485602082611006565b60208151910120036105d257805f52600260205260405f20825167ffffffffffffffff81116105be576104b8825461107a565b601f8111610579575b506020601f821160011461051857819293945f9261050d575b50508160011b915f199060031b1c19161790555b805f5260046020525f60408120555f5260056020525f60408120555f80f35b0151905084806104da565b601f19821690835f52805f20915f5b81811061056157509583600195969710610549575b505050811b0190556104ee565b01515f1960f88460031b161c1916905584808061053c565b9192602060018192868b015181550194019201610527565b825f5260205f20601f830160051c810191602084106105b4575b601f0160051c01905b8181106105a957506104c1565b5f815560010161059c565b9091508190610593565b634e487b7160e01b5f52604160045260245ffd5b60405162461bcd60e51b81526020600482015260156024820152744d61726b657420616c72656164792065786973747360581b6044820152606490fd5b9150505f528160205f205f905b8382106106345750506020610471928201018761045d565b60209192508060019154838588010152019101839161061c565b60ff191687525061047193801515028301602001915088905061045d565b346100f65760203660031901126100f6576001600160801b0361068d610f96565b165f526004602052602060405f2054604051908152f35b346100f65760403660031901126100f6576106bd610f96565b6001600160801b036106cd610fac565b91165f52600660205260405f209060018060a01b03165f52602052602060405f2054604051908152f35b346100f65760403660031901126100f6576040610712610f96565b6001600160801b03610722610fac565b91165f818152600660209081528482206001600160a01b03909416808352938152848220549282526007815284822093825292835283902054835191825291810191909152f35b346100f65760203660031901126100f6576001600160a01b0361078a610fc2565b165f526001602052602060ff60405f2054166040519015158152f35b346100f65760403660031901126100f6576107bf610f96565b602435908115158092036100f6575f546001600160a01b03163303610888576001600160801b031690815f52600460205260405f205461085057816040917fe2759038acb609a0cce74ae6803044ff45c56b4a3ffea1d819a80ebaebefae50935f526003602052825f2060ff1981541660ff8316179055815f52600460205242835f205582519182526020820152a1005b60405162461bcd60e51b815260206004820152601060248201526f105b1c9958591e481c995cdbdb1d995960821b6044820152606490fd5b60405162461bcd60e51b815260206004820152602260248201527f4f6e6c79206f7261636c652063616e2063616c6c20746869732066756e63746960448201526137b760f11b6064820152608490fd5b346100f65760403660031901126100f6576108f1610f96565b6001600160801b03610901610fac565b91165f52600760205260405f209060018060a01b03165f52602052602060405f2054604051908152f35b346100f65760203660031901126100f6576001600160801b0361094c610f96565b16805f52600460205260405f205415610b6957805f52600360205260ff60405f2054165f14610b4b575f8181526006602090815260408083203384529091529020545b8015610b125760405163a9059cbb60e01b8152336004820152602481018290526020816044815f7f00000000000000000000000000000000000000000000000000000000000000006001600160a01b03165af18015610b0757610ada575b505f828152600660209081526040808320338452909152902054610abc575b5f828152600760209081526040808320338452909152902054610a9e575b815f52600560205260405f205491818303928311610a8a57602092815f526005845260405f205560405190815281838201527f08542924b3ac8bc6f7ee3f17d5af02a53e42936e2ac6f5ea729166871100a66160403392a2604051908152f35b634e487b7160e01b5f52601160045260245ffd5b5f828152600760209081526040808320338452909152812055610a2a565b5f828152600660209081526040808320338452909152812055610a0c565b610afb9060203d602011610b00575b610af38183611006565b81019061113f565b6109ed565b503d610ae9565b6040513d5f823e3d90fd5b60405162461bcd60e51b81526020600482015260116024820152704e6f2077696e6e696e6720746f6b656e7360781b6044820152606490fd5b5f81815260076020908152604080832033845290915290205461098f565b60405162461bcd60e51b815260206004820152601060248201526f139bdd081c995cdbdb1d9959081e595d60821b6044820152606490fd5b346100f6576101003660031901126100f657610bbb610f96565b610bc3610fac565b6044356001600160a01b038116929091908383036100f657606435608435916001600160801b03831683036100f65760a435906001600160801b03821682036100f65760c43567ffffffffffffffff81116100f657610c26903690600401610fd8565b60e49291923567ffffffffffffffff81116100f657610c49903690600401610fd8565b949092610c6060018060a01b035f541633146110d6565b6001600160801b03811697885f52600460205260405f2054610f5f5781610c8c89610c929481946111d1565b936111d1565b93610ca8610ca1368584611044565b838b61123f565b928315610f3f575b50505015610f0257610ccd610cc6368584611044565b838961123f565b928315610ee2575b50505015610ea6576040516323b872dd60e01b81526001600160a01b038481166004830152306024830152604482018390527f0000000000000000000000000000000000000000000000000000000000000000166020826064815f855af1908115610b0757610d9096610d5385936020955f91610e89575b50611157565b6040516323b872dd60e01b81526001600160a01b0390911660048201523060248201526044810192909252909586919082905f9082906064820190565b03925af1928315610b0757610dcf6060947fdf0374fff198342d0ed2119d2a7cb66a59f137f7e0840499e47620c6933ec676965f91610e6a5750611157565b825f52600660205260405f2060018060a01b0382165f5260205260405f20610df8838254611195565b9055825f52600760205260405f20865f5260205260405f20610e1b838254611195565b9055825f52600560205260405f20610e34838254611195565b90558484604051928584528460208501525f604085015260018060a01b031692a2604051918252602082015260016040820152a2005b610e83915060203d602011610b0057610af38183611006565b88610d4d565b610ea09150863d8811610b0057610af38183611006565b8b610d4d565b60405162461bcd60e51b8152602060048201526014602482015273496e76616c6964204e4f207369676e617475726560601b6044820152606490fd5b610efa935090610ef3913691611044565b90866112e2565b868080610cd5565b60405162461bcd60e51b8152602060048201526015602482015274496e76616c696420594553207369676e617475726560581b6044820152606490fd5b610f57935090610f50913691611044565b90886112e2565b898080610cb0565b60405162461bcd60e51b815260206004820152600f60248201526e13585c9ad95d081c995cdbdb1d9959608a1b6044820152606490fd5b600435906001600160801b03821682036100f657565b602435906001600160a01b03821682036100f657565b600435906001600160a01b03821682036100f657565b9181601f840112156100f65782359167ffffffffffffffff83116100f657602083818601950101116100f657565b90601f8019910116810190811067ffffffffffffffff8211176105be57604052565b67ffffffffffffffff81116105be57601f01601f191660200190565b92919261105082611028565b9161105e6040519384611006565b8294818452818301116100f6578281602093845f960137010152565b90600182811c921680156110a8575b602083101461109457565b634e487b7160e01b5f52602260045260245ffd5b91607f1691611089565b805180835260209291819084018484015e5f828201840152601f01601f1916010190565b156110dd57565b60405162461bcd60e51b815260206004820152603460248201527f4f6e6c792064697265637420757365722063616c6c732061726520616c6c6f7760448201527332b2103337b9103a3434b990333ab731ba34b7b760611b6064820152608490fd5b908160209103126100f6575180151581036100f65790565b1561115e57565b60405162461bcd60e51b815260206004820152600f60248201526e151c985b9cd9995c8819985a5b1959608a1b6044820152606490fd5b91908201809211610a8a57565b3d156111cc573d906111b382611028565b916111c16040519384611006565b82523d5f602084013e565b606090565b916040519160208301936001600160801b03199060801b1684526001600160801b03199060801b166030830152604082015260408152611212606082611006565b51902090565b61123c939260609260018060a01b03168252602082015281604082015201906110b2565b90565b5f926112758493611267604051938492602084019663092ec2b360e11b885260248501611218565b03601f198101835282611006565b51906101675afa6112846111a2565b901561129d578060208061123c9351830101910161113f565b60405162461bcd60e51b815260206004820152601760248201527f45434453412076616c69646174696f6e206661696c65640000000000000000006044820152606490fd5b5f9261130a8493611267604051938492602084019663624c692760e11b885260248501611218565b51906101675afa6113196111a2565b9015611332578060208061123c9351830101910161113f565b60405162461bcd60e51b815260206004820152601960248201527f456432353531392076616c69646174696f6e206661696c6564000000000000006044820152606490fdfea2646970667358221220c9720bd1a28ec79e9bb86fce6f72236e527583f77e631110f4afbd6b4c7d827164736f6c634300081e0033",
    "sourcePath": "/media/ionneb/eoh/nextcloud/repos/_personal/Hedera-Prediction/scs/contracts/PredictionMarket.sol",
    "compiler": {
        "name": "solc",
        "version": "0.8.30+commit.73712a01"
    },
    "functionHashes": {
        "associateToken(address)": "a7efe348",
        "associatedTokens(address)": "4e91e42f",
        "buyPositionTokensOnBehalfAtomic(uint128,address,address,uint256,uint128,uint128,bytes,bytes)": "30ec2707",
        "collateralToken()": "b2016bd4",
        "createNewMarket(uint128,string)": "986c16ab",
        "getTotalCollateral(uint128)": "e903ab32",
        "getUserTokens(uint128,address)": "500b3e92",
        "noTokens(uint128,address)": "406c45e4",
        "outcomes(uint128)": "bcffca1d",
        "redeem(uint128)": "354df84f",
        "resolutionTimes(uint128)": "7689dd44",
        "resolveMarket(uint128,bool)": "489f41e8",
        "statements(uint128)": "b27b7f6d",
        "totalCollaterals(uint128)": "c7fe950b",
        "yesTokens(uint128,address)": "70d34396"
    },
    "gasEstimates": {
        "creation": {
            "codeDepositCost": "1007400",
            "executionCost": "infinite",
            "totalCost": "infinite"
        },
        "external": {
            "associateToken(address)": "infinite",
            "associatedTokens(address)": "2498",
            "buyPositionTokensOnBehalfAtomic(uint128,address,address,uint256,uint128,uint128,bytes,bytes)": "infinite",
            "collateralToken()": "infinite",
            "createNewMarket(uint128,string)": "infinite",
            "getTotalCollateral(uint128)": "2703",
            "getUserTokens(uint128,address)": "4943",
            "noTokens(uint128,address)": "2597",
            "outcomes(uint128)": "2674",
            "redeem(uint128)": "infinite",
            "resolutionTimes(uint128)": "2552",
            "resolveMarket(uint128,bool)": "52404",
            "statements(uint128)": "infinite",
            "totalCollaterals(uint128)": "2684",
            "yesTokens(uint128,address)": "2685"
        },
        "internal": {
            "calcSig(uint128,uint128,uint256)": "infinite",
            "validateECDSASignature(address,bytes32,bytes memory)": "infinite",
            "validateEd25519Signature(address,bytes32,bytes memory)": "infinite"
        }
    }
}